{
  "address": "0x5FbDB2315678afecb367f032d93F642f64180aa3",
  "abi": [
    {
      "inputs": [],
      "stateMutability": "nonpayable",
      "type": "constructor"
    },
    {
      "inputs": [],
      "name": "BuyMeACoffee_TransferFailed",
      "type": "error"
    },
    {
      "anonymous": false,
      "inputs": [
        {
          "indexed": true,
          "internalType": "address",
          "name": "from",
          "type": "address"
        },
        {
          "indexed": false,
          "internalType": "uint256",
          "name": "timeStamp",
          "type": "uint256"
        },
        {
          "indexed": false,
          "internalType": "string",
          "name": "name",
          "type": "string"
        },
        {
          "indexed": false,
          "internalType": "string",
          "name": "message",
          "type": "string"
        }
      ],
      "name": "NewMemo",
      "type": "event"
    },
    {
      "inputs": [
        {
          "internalType": "string",
          "name": "_name",
          "type": "string"
        },
        {
          "internalType": "string",
          "name": "_message",
          "type": "string"
        }
      ],
      "name": "buyCoffee",
      "outputs": [],
      "stateMutability": "payable",
      "type": "function"
    },
    {
      "inputs": [],
      "name": "getMemo",
      "outputs": [
        {
          "components": [
            {
              "internalType": "address",
              "name": "from",
              "type": "address"
            },
            {
              "internalType": "uint256",
              "name": "timeStamp",
              "type": "uint256"
            },
            {
              "internalType": "string",
              "name": "name",
              "type": "string"
            },
            {
              "internalType": "string",
              "name": "message",
              "type": "string"
            }
          ],
          "internalType": "struct BuyMeACoffee.Memo[]",
          "name": "",
          "type": "tuple[]"
        }
      ],
      "stateMutability": "view",
      "type": "function"
    },
    {
      "inputs": [],
      "name": "withdrawTips",
      "outputs": [],
      "stateMutability": "nonpayable",
      "type": "function"
    }
  ],
  "transactionHash": "0x8bc79f26098d756b9f10e4744a78bfd4cc9e3e7aa3905b40371109a082642b77",
  "args": [],
  "numDeployments": 1,
  "solcInputHash": "c0a4baaf739596cf6608c53e38a13e75",
  "bytecode": "0x608060405234801561001057600080fd5b5033600160006101000a81548173ffffffffffffffffffffffffffffffffffffffff021916908373ffffffffffffffffffffffffffffffffffffffff160217905550610baf806100616000396000f3fe6080604052600436106100345760003560e01c8063204206e1146100395780633aaa74b2146100555780638aa7b4b11461006c575b600080fd5b610053600480360381019061004e9190610610565b610097565b005b34801561006157600080fd5b5061006a61021f565b005b34801561007857600080fd5b5061008161031a565b60405161008e9190610860565b60405180910390f35b600034116100da576040517f08c379a00000000000000000000000000000000000000000000000000000000081526004016100d1906108a2565b60405180910390fd5b600060405180608001604052803373ffffffffffffffffffffffffffffffffffffffff16815260200142815260200184815260200183815250908060018154018082558091505060019003906000526020600020906004020160009091909190915060008201518160000160006101000a81548173ffffffffffffffffffffffffffffffffffffffff021916908373ffffffffffffffffffffffffffffffffffffffff1602179055506020820151816001015560408201518160020190805190602001906101a99291906104fd565b5060608201518160030190805190602001906101c69291906104fd565b5050503373ffffffffffffffffffffffffffffffffffffffff167fc56140e05f516509ae28110e0f72e17558a7561630dad2647c3ae87d986e365c428484604051610213939291906108c2565b60405180910390a25050565b600160009054906101000a900473ffffffffffffffffffffffffffffffffffffffff1673ffffffffffffffffffffffffffffffffffffffff163373ffffffffffffffffffffffffffffffffffffffff16146102af576040517f08c379a00000000000000000000000000000000000000000000000000000000081526004016102a690610882565b60405180910390fd5b600160009054906101000a900473ffffffffffffffffffffffffffffffffffffffff1673ffffffffffffffffffffffffffffffffffffffff166108fc479081150290604051600060405180830381858888f19350505050158015610317573d6000803e3d6000fd5b50565b60606000805480602002602001604051908101604052809291908181526020016000905b828210156104f457838290600052602060002090600402016040518060800160405290816000820160009054906101000a900473ffffffffffffffffffffffffffffffffffffffff1673ffffffffffffffffffffffffffffffffffffffff1673ffffffffffffffffffffffffffffffffffffffff168152602001600182015481526020016002820180546103d190610a41565b80601f01602080910402602001604051908101604052809291908181526020018280546103fd90610a41565b801561044a5780601f1061041f5761010080835404028352916020019161044a565b820191906000526020600020905b81548152906001019060200180831161042d57829003601f168201915b5050505050815260200160038201805461046390610a41565b80601f016020809104026020016040519081016040528092919081815260200182805461048f90610a41565b80156104dc5780601f106104b1576101008083540402835291602001916104dc565b820191906000526020600020905b8154815290600101906020018083116104bf57829003601f168201915b5050505050815250508152602001906001019061033e565b50505050905090565b82805461050990610a41565b90600052602060002090601f01602090048101928261052b5760008555610572565b82601f1061054457805160ff1916838001178555610572565b82800160010185558215610572579182015b82811115610571578251825591602001919060010190610556565b5b50905061057f9190610583565b5090565b5b8082111561059c576000816000905550600101610584565b5090565b60006105b36105ae8461092c565b610907565b9050828152602081018484840111156105cf576105ce610b07565b5b6105da8482856109ff565b509392505050565b600082601f8301126105f7576105f6610b02565b5b81356106078482602086016105a0565b91505092915050565b6000806040838503121561062757610626610b11565b5b600083013567ffffffffffffffff81111561064557610644610b0c565b5b610651858286016105e2565b925050602083013567ffffffffffffffff81111561067257610671610b0c565b5b61067e858286016105e2565b9150509250929050565b600061069483836107d8565b905092915050565b6106a5816109c3565b82525050565b60006106b68261096d565b6106c08185610990565b9350836020820285016106d28561095d565b8060005b8581101561070e57848403895281516106ef8582610688565b94506106fa83610983565b925060208a019950506001810190506106d6565b50829750879550505050505092915050565b600061072b82610978565b61073581856109a1565b9350610745818560208601610a0e565b61074e81610b16565b840191505092915050565b600061076482610978565b61076e81856109b2565b935061077e818560208601610a0e565b61078781610b16565b840191505092915050565b600061079f6015836109b2565b91506107aa82610b27565b602082019050919050565b60006107c2601b836109b2565b91506107cd82610b50565b602082019050919050565b60006080830160008301516107f0600086018261069c565b5060208301516108036020860182610842565b506040830151848203604086015261081b8282610720565b915050606083015184820360608601526108358282610720565b9150508091505092915050565b61084b816109f5565b82525050565b61085a816109f5565b82525050565b6000602082019050818103600083015261087a81846106ab565b905092915050565b6000602082019050818103600083015261089b81610792565b9050919050565b600060208201905081810360008301526108bb816107b5565b9050919050565b60006060820190506108d76000830186610851565b81810360208301526108e98185610759565b905081810360408301526108fd8184610759565b9050949350505050565b6000610911610922565b905061091d8282610a73565b919050565b6000604051905090565b600067ffffffffffffffff82111561094757610946610ad3565b5b61095082610b16565b9050602081019050919050565b6000819050602082019050919050565b600081519050919050565b600081519050919050565b6000602082019050919050565b600082825260208201905092915050565b600082825260208201905092915050565b600082825260208201905092915050565b60006109ce826109d5565b9050919050565b600073ffffffffffffffffffffffffffffffffffffffff82169050919050565b6000819050919050565b82818337600083830152505050565b60005b83811015610a2c578082015181840152602081019050610a11565b83811115610a3b576000848401525b50505050565b60006002820490506001821680610a5957607f821691505b60208210811415610a6d57610a6c610aa4565b5b50919050565b610a7c82610b16565b810181811067ffffffffffffffff82111715610a9b57610a9a610ad3565b5b80604052505050565b7f4e487b7100000000000000000000000000000000000000000000000000000000600052602260045260246000fd5b7f4e487b7100000000000000000000000000000000000000000000000000000000600052604160045260246000fd5b600080fd5b600080fd5b600080fd5b600080fd5b6000601f19601f8301169050919050565b7f596f7520617265206e6f7420746865206f776e65720000000000000000000000600082015250565b7f63616e27742062757920636f666665652077697468203020657468000000000060008201525056fea2646970667358221220e16d8825d86d043d247e72cd1f553c508a9e75b632962c7373566ceeab9d288364736f6c63430008070033",
  "devdoc": {
    "kind": "dev",
    "methods": {
      "buyCoffee(string,string)": {
        "details": "buy me a coffee contract owner",
        "params": {
          "_message": "message from coffee buyer to deployer",
          "_name": "name of coffee buyer"
        }
      },
      "getMemo()": {
        "details": "get and show memo on blockchain"
      },
      "withdrawTips()": {
        "details": "withdraw to tips to deployer"
      }
    },
    "version": 1
  },
  "userdoc": {
    "kind": "user",
    "methods": {},
    "version": 1
  },
  "storageLayout": {
    "storage": [
      {
        "astId": 26,
        "contract": "contracts/BuyMeACoffee.sol:BuyMeACoffee",
        "label": "memos",
        "offset": 0,
        "slot": "0",
        "type": "t_array(t_struct(Memo)22_storage)dyn_storage"
      },
      {
        "astId": 28,
        "contract": "contracts/BuyMeACoffee.sol:BuyMeACoffee",
        "label": "owner",
        "offset": 0,
        "slot": "1",
        "type": "t_address_payable"
      }
    ],
    "types": {
      "t_address": {
        "encoding": "inplace",
        "label": "address",
        "numberOfBytes": "20"
      },
      "t_address_payable": {
        "encoding": "inplace",
        "label": "address payable",
        "numberOfBytes": "20"
      },
      "t_array(t_struct(Memo)22_storage)dyn_storage": {
        "base": "t_struct(Memo)22_storage",
        "encoding": "dynamic_array",
        "label": "struct BuyMeACoffee.Memo[]",
        "numberOfBytes": "32"
      },
      "t_string_storage": {
        "encoding": "bytes",
        "label": "string",
        "numberOfBytes": "32"
      },
      "t_struct(Memo)22_storage": {
        "encoding": "inplace",
        "label": "struct BuyMeACoffee.Memo",
        "members": [
          {
            "astId": 15,
            "contract": "contracts/BuyMeACoffee.sol:BuyMeACoffee",
            "label": "from",
            "offset": 0,
            "slot": "0",
            "type": "t_address"
          },
          {
            "astId": 17,
            "contract": "contracts/BuyMeACoffee.sol:BuyMeACoffee",
            "label": "timeStamp",
            "offset": 0,
            "slot": "1",
            "type": "t_uint256"
          },
          {
            "astId": 19,
            "contract": "contracts/BuyMeACoffee.sol:BuyMeACoffee",
            "label": "name",
            "offset": 0,
            "slot": "2",
            "type": "t_string_storage"
          },
          {
            "astId": 21,
            "contract": "contracts/BuyMeACoffee.sol:BuyMeACoffee",
            "label": "message",
            "offset": 0,
            "slot": "3",
            "type": "t_string_storage"
          }
        ],
        "numberOfBytes": "128"
      },
      "t_uint256": {
        "encoding": "inplace",
        "label": "uint256",
        "numberOfBytes": "32"
      }
    }
  }
}