{
  "address": "0x5FbDB2315678afecb367f032d93F642f64180aa3",
  "abi": [
    {
      "inputs": [],
      "stateMutability": "nonpayable",
      "type": "constructor"
    },
    {
      "inputs": [],
      "name": "BuyMeACoffee_TransferFailed",
      "type": "error"
    },
    {
      "anonymous": false,
      "inputs": [
        {
          "indexed": true,
          "internalType": "address",
          "name": "from",
          "type": "address"
        },
        {
          "indexed": false,
          "internalType": "uint256",
          "name": "timeStamp",
          "type": "uint256"
        },
        {
          "indexed": false,
          "internalType": "string",
          "name": "name",
          "type": "string"
        },
        {
          "indexed": false,
          "internalType": "string",
          "name": "message",
          "type": "string"
        }
      ],
      "name": "NewMemo",
      "type": "event"
    },
    {
      "inputs": [
        {
          "internalType": "string",
          "name": "_name",
          "type": "string"
        },
        {
          "internalType": "string",
          "name": "_message",
          "type": "string"
        }
      ],
      "name": "buyCoffee",
      "outputs": [],
      "stateMutability": "payable",
      "type": "function"
    },
    {
      "inputs": [],
      "name": "getMemo",
      "outputs": [
        {
          "components": [
            {
              "internalType": "address",
              "name": "from",
              "type": "address"
            },
            {
              "internalType": "uint256",
              "name": "timeStamp",
              "type": "uint256"
            },
            {
              "internalType": "string",
              "name": "name",
              "type": "string"
            },
            {
              "internalType": "string",
              "name": "message",
              "type": "string"
            }
          ],
          "internalType": "struct BuyMeACoffee.Memo[]",
          "name": "",
          "type": "tuple[]"
        }
      ],
      "stateMutability": "view",
      "type": "function"
    },
    {
      "inputs": [],
      "name": "withdrawTips",
      "outputs": [],
      "stateMutability": "nonpayable",
      "type": "function"
    }
  ],
  "transactionHash": "0x0c71cd33c01f60525450973832fb5ae14748b2d42dfb961185df5c5b7330ab97",
  "args": [],
  "numDeployments": 1,
  "solcInputHash": "ac646e4c2a039c421b8680ef2d7e5c0c",
  "bytecode": "0x608060405234801561001057600080fd5b5033600160006101000a81548173ffffffffffffffffffffffffffffffffffffffff021916908373ffffffffffffffffffffffffffffffffffffffff160217905550610c52806100616000396000f3fe6080604052600436106100345760003560e01c8063204206e1146100395780633aaa74b2146100555780638aa7b4b11461006c575b600080fd5b610053600480360381019061004e919061066d565b610097565b005b34801561006157600080fd5b5061006a61021f565b005b34801561007857600080fd5b50610081610377565b60405161008e91906108f5565b60405180910390f35b600034116100da576040517f08c379a00000000000000000000000000000000000000000000000000000000081526004016100d190610937565b60405180910390fd5b600060405180608001604052803373ffffffffffffffffffffffffffffffffffffffff16815260200142815260200184815260200183815250908060018154018082558091505060019003906000526020600020906004020160009091909190915060008201518160000160006101000a81548173ffffffffffffffffffffffffffffffffffffffff021916908373ffffffffffffffffffffffffffffffffffffffff1602179055506020820151816001015560408201518160020190805190602001906101a992919061055a565b5060608201518160030190805190602001906101c692919061055a565b5050503373ffffffffffffffffffffffffffffffffffffffff167fc56140e05f516509ae28110e0f72e17558a7561630dad2647c3ae87d986e365c42848460405161021393929190610957565b60405180910390a25050565b600160009054906101000a900473ffffffffffffffffffffffffffffffffffffffff1673ffffffffffffffffffffffffffffffffffffffff163373ffffffffffffffffffffffffffffffffffffffff16146102af576040517f08c379a00000000000000000000000000000000000000000000000000000000081526004016102a690610917565b60405180910390fd5b6000600160009054906101000a900473ffffffffffffffffffffffffffffffffffffffff1673ffffffffffffffffffffffffffffffffffffffff16476040516102f7906108e0565b60006040518083038185875af1925050503d8060008114610334576040519150601f19603f3d011682016040523d82523d6000602084013e610339565b606091505b5050905080610374576040517f0adf7df400000000000000000000000000000000000000000000000000000000815260040160405180910390fd5b50565b60606000805480602002602001604051908101604052809291908181526020016000905b8282101561055157838290600052602060002090600402016040518060800160405290816000820160009054906101000a900473ffffffffffffffffffffffffffffffffffffffff1673ffffffffffffffffffffffffffffffffffffffff1673ffffffffffffffffffffffffffffffffffffffff1681526020016001820154815260200160028201805461042e90610ae1565b80601f016020809104026020016040519081016040528092919081815260200182805461045a90610ae1565b80156104a75780601f1061047c576101008083540402835291602001916104a7565b820191906000526020600020905b81548152906001019060200180831161048a57829003601f168201915b505050505081526020016003820180546104c090610ae1565b80601f01602080910402602001604051908101604052809291908181526020018280546104ec90610ae1565b80156105395780601f1061050e57610100808354040283529160200191610539565b820191906000526020600020905b81548152906001019060200180831161051c57829003601f168201915b5050505050815250508152602001906001019061039b565b50505050905090565b82805461056690610ae1565b90600052602060002090601f01602090048101928261058857600085556105cf565b82601f106105a157805160ff19168380011785556105cf565b828001600101855582156105cf579182015b828111156105ce5782518255916020019190600101906105b3565b5b5090506105dc91906105e0565b5090565b5b808211156105f95760008160009055506001016105e1565b5090565b600061061061060b846109c1565b61099c565b90508281526020810184848401111561062c5761062b610ba7565b5b610637848285610a9f565b509392505050565b600082601f83011261065457610653610ba2565b5b81356106648482602086016105fd565b91505092915050565b6000806040838503121561068457610683610bb1565b5b600083013567ffffffffffffffff8111156106a2576106a1610bac565b5b6106ae8582860161063f565b925050602083013567ffffffffffffffff8111156106cf576106ce610bac565b5b6106db8582860161063f565b9150509250929050565b60006106f18383610858565b905092915050565b61070281610a63565b82525050565b600061071382610a02565b61071d8185610a25565b93508360208202850161072f856109f2565b8060005b8581101561076b578484038952815161074c85826106e5565b945061075783610a18565b925060208a01995050600181019050610733565b50829750879550505050505092915050565b600061078882610a0d565b6107928185610a41565b93506107a2818560208601610aae565b6107ab81610bb6565b840191505092915050565b60006107c182610a0d565b6107cb8185610a52565b93506107db818560208601610aae565b6107e481610bb6565b840191505092915050565b60006107fc601583610a52565b915061080782610bc7565b602082019050919050565b600061081f601b83610a52565b915061082a82610bf0565b602082019050919050565b6000610842600083610a36565b915061084d82610c19565b600082019050919050565b600060808301600083015161087060008601826106f9565b50602083015161088360208601826108c2565b506040830151848203604086015261089b828261077d565b915050606083015184820360608601526108b5828261077d565b9150508091505092915050565b6108cb81610a95565b82525050565b6108da81610a95565b82525050565b60006108eb82610835565b9150819050919050565b6000602082019050818103600083015261090f8184610708565b905092915050565b60006020820190508181036000830152610930816107ef565b9050919050565b6000602082019050818103600083015261095081610812565b9050919050565b600060608201905061096c60008301866108d1565b818103602083015261097e81856107b6565b9050818103604083015261099281846107b6565b9050949350505050565b60006109a66109b7565b90506109b28282610b13565b919050565b6000604051905090565b600067ffffffffffffffff8211156109dc576109db610b73565b5b6109e582610bb6565b9050602081019050919050565b6000819050602082019050919050565b600081519050919050565b600081519050919050565b6000602082019050919050565b600082825260208201905092915050565b600081905092915050565b600082825260208201905092915050565b600082825260208201905092915050565b6000610a6e82610a75565b9050919050565b600073ffffffffffffffffffffffffffffffffffffffff82169050919050565b6000819050919050565b82818337600083830152505050565b60005b83811015610acc578082015181840152602081019050610ab1565b83811115610adb576000848401525b50505050565b60006002820490506001821680610af957607f821691505b60208210811415610b0d57610b0c610b44565b5b50919050565b610b1c82610bb6565b810181811067ffffffffffffffff82111715610b3b57610b3a610b73565b5b80604052505050565b7f4e487b7100000000000000000000000000000000000000000000000000000000600052602260045260246000fd5b7f4e487b7100000000000000000000000000000000000000000000000000000000600052604160045260246000fd5b600080fd5b600080fd5b600080fd5b600080fd5b6000601f19601f8301169050919050565b7f596f7520617265206e6f7420746865206f776e65720000000000000000000000600082015250565b7f63616e27742062757920636f6666656520776974682030206574680000000000600082015250565b5056fea2646970667358221220312f5591e6f0c25cd6295308965c189b17414fb986702fb9dad2146d0730651564736f6c63430008070033",
  "devdoc": {
    "kind": "dev",
    "methods": {
      "buyCoffee(string,string)": {
        "details": "buy me a coffee contract owner",
        "params": {
          "_message": "message from coffee buyer to deployer",
          "_name": "name of coffee buyer"
        }
      },
      "getMemo()": {
        "details": "get and show memo on blockchain"
      },
      "withdrawTips()": {
        "details": "withdraw to tips to deployer"
      }
    },
    "version": 1
  },
  "userdoc": {
    "kind": "user",
    "methods": {},
    "version": 1
  },
  "storageLayout": {
    "storage": [
      {
        "astId": 26,
        "contract": "contracts/BuyMeACoffee.sol:BuyMeACoffee",
        "label": "memos",
        "offset": 0,
        "slot": "0",
        "type": "t_array(t_struct(Memo)22_storage)dyn_storage"
      },
      {
        "astId": 28,
        "contract": "contracts/BuyMeACoffee.sol:BuyMeACoffee",
        "label": "owner",
        "offset": 0,
        "slot": "1",
        "type": "t_address_payable"
      }
    ],
    "types": {
      "t_address": {
        "encoding": "inplace",
        "label": "address",
        "numberOfBytes": "20"
      },
      "t_address_payable": {
        "encoding": "inplace",
        "label": "address payable",
        "numberOfBytes": "20"
      },
      "t_array(t_struct(Memo)22_storage)dyn_storage": {
        "base": "t_struct(Memo)22_storage",
        "encoding": "dynamic_array",
        "label": "struct BuyMeACoffee.Memo[]",
        "numberOfBytes": "32"
      },
      "t_string_storage": {
        "encoding": "bytes",
        "label": "string",
        "numberOfBytes": "32"
      },
      "t_struct(Memo)22_storage": {
        "encoding": "inplace",
        "label": "struct BuyMeACoffee.Memo",
        "members": [
          {
            "astId": 15,
            "contract": "contracts/BuyMeACoffee.sol:BuyMeACoffee",
            "label": "from",
            "offset": 0,
            "slot": "0",
            "type": "t_address"
          },
          {
            "astId": 17,
            "contract": "contracts/BuyMeACoffee.sol:BuyMeACoffee",
            "label": "timeStamp",
            "offset": 0,
            "slot": "1",
            "type": "t_uint256"
          },
          {
            "astId": 19,
            "contract": "contracts/BuyMeACoffee.sol:BuyMeACoffee",
            "label": "name",
            "offset": 0,
            "slot": "2",
            "type": "t_string_storage"
          },
          {
            "astId": 21,
            "contract": "contracts/BuyMeACoffee.sol:BuyMeACoffee",
            "label": "message",
            "offset": 0,
            "slot": "3",
            "type": "t_string_storage"
          }
        ],
        "numberOfBytes": "128"
      },
      "t_uint256": {
        "encoding": "inplace",
        "label": "uint256",
        "numberOfBytes": "32"
      }
    }
  }
}